{"abi":[{"type":"constructor","inputs":[{"name":"sadSvgUri","type":"string","internalType":"string"},{"name":"happySvgUri","type":"string","internalType":"string"}],"stateMutability":"nonpayable"},{"type":"function","name":"approve","inputs":[{"name":"to","type":"address","internalType":"address"},{"name":"tokenId","type":"uint256","internalType":"uint256"}],"outputs":[],"stateMutability":"nonpayable"},{"type":"function","name":"balanceOf","inputs":[{"name":"owner","type":"address","internalType":"address"}],"outputs":[{"name":"","type":"uint256","internalType":"uint256"}],"stateMutability":"view"},{"type":"function","name":"flipMood","inputs":[{"name":"tokenId","type":"uint256","internalType":"uint256"}],"outputs":[],"stateMutability":"nonpayable"},{"type":"function","name":"getApproved","inputs":[{"name":"tokenId","type":"uint256","internalType":"uint256"}],"outputs":[{"name":"","type":"address","internalType":"address"}],"stateMutability":"view"},{"type":"function","name":"getHappySVG","inputs":[],"outputs":[{"name":"","type":"string","internalType":"string"}],"stateMutability":"view"},{"type":"function","name":"getSadSVG","inputs":[],"outputs":[{"name":"","type":"string","internalType":"string"}],"stateMutability":"view"},{"type":"function","name":"getTokenCounter","inputs":[],"outputs":[{"name":"","type":"uint256","internalType":"uint256"}],"stateMutability":"view"},{"type":"function","name":"isApprovedForAll","inputs":[{"name":"owner","type":"address","internalType":"address"},{"name":"operator","type":"address","internalType":"address"}],"outputs":[{"name":"","type":"bool","internalType":"bool"}],"stateMutability":"view"},{"type":"function","name":"mintNft","inputs":[],"outputs":[],"stateMutability":"nonpayable"},{"type":"function","name":"name","inputs":[],"outputs":[{"name":"","type":"string","internalType":"string"}],"stateMutability":"view"},{"type":"function","name":"owner","inputs":[],"outputs":[{"name":"","type":"address","internalType":"address"}],"stateMutability":"view"},{"type":"function","name":"ownerOf","inputs":[{"name":"tokenId","type":"uint256","internalType":"uint256"}],"outputs":[{"name":"","type":"address","internalType":"address"}],"stateMutability":"view"},{"type":"function","name":"renounceOwnership","inputs":[],"outputs":[],"stateMutability":"nonpayable"},{"type":"function","name":"safeTransferFrom","inputs":[{"name":"from","type":"address","internalType":"address"},{"name":"to","type":"address","internalType":"address"},{"name":"tokenId","type":"uint256","internalType":"uint256"}],"outputs":[],"stateMutability":"nonpayable"},{"type":"function","name":"safeTransferFrom","inputs":[{"name":"from","type":"address","internalType":"address"},{"name":"to","type":"address","internalType":"address"},{"name":"tokenId","type":"uint256","internalType":"uint256"},{"name":"data","type":"bytes","internalType":"bytes"}],"outputs":[],"stateMutability":"nonpayable"},{"type":"function","name":"setApprovalForAll","inputs":[{"name":"operator","type":"address","internalType":"address"},{"name":"approved","type":"bool","internalType":"bool"}],"outputs":[],"stateMutability":"nonpayable"},{"type":"function","name":"supportsInterface","inputs":[{"name":"interfaceId","type":"bytes4","internalType":"bytes4"}],"outputs":[{"name":"","type":"bool","internalType":"bool"}],"stateMutability":"view"},{"type":"function","name":"symbol","inputs":[],"outputs":[{"name":"","type":"string","internalType":"string"}],"stateMutability":"view"},{"type":"function","name":"tokenURI","inputs":[{"name":"tokenId","type":"uint256","internalType":"uint256"}],"outputs":[{"name":"","type":"string","internalType":"string"}],"stateMutability":"view"},{"type":"function","name":"transferFrom","inputs":[{"name":"from","type":"address","internalType":"address"},{"name":"to","type":"address","internalType":"address"},{"name":"tokenId","type":"uint256","internalType":"uint256"}],"outputs":[],"stateMutability":"nonpayable"},{"type":"function","name":"transferOwnership","inputs":[{"name":"newOwner","type":"address","internalType":"address"}],"outputs":[],"stateMutability":"nonpayable"},{"type":"event","name":"Approval","inputs":[{"name":"owner","type":"address","indexed":true,"internalType":"address"},{"name":"approved","type":"address","indexed":true,"internalType":"address"},{"name":"tokenId","type":"uint256","indexed":true,"internalType":"uint256"}],"anonymous":false},{"type":"event","name":"ApprovalForAll","inputs":[{"name":"owner","type":"address","indexed":true,"internalType":"address"},{"name":"operator","type":"address","indexed":true,"internalType":"address"},{"name":"approved","type":"bool","indexed":false,"internalType":"bool"}],"anonymous":false},{"type":"event","name":"CreatedNFT","inputs":[{"name":"tokenId","type":"uint256","indexed":true,"internalType":"uint256"}],"anonymous":false},{"type":"event","name":"OwnershipTransferred","inputs":[{"name":"previousOwner","type":"address","indexed":true,"internalType":"address"},{"name":"newOwner","type":"address","indexed":true,"internalType":"address"}],"anonymous":false},{"type":"event","name":"Transfer","inputs":[{"name":"from","type":"address","indexed":true,"internalType":"address"},{"name":"to","type":"address","indexed":true,"internalType":"address"},{"name":"tokenId","type":"uint256","indexed":true,"internalType":"uint256"}],"anonymous":false},{"type":"error","name":"ERC721IncorrectOwner","inputs":[{"name":"sender","type":"address","internalType":"address"},{"name":"tokenId","type":"uint256","internalType":"uint256"},{"name":"owner","type":"address","internalType":"address"}]},{"type":"error","name":"ERC721InsufficientApproval","inputs":[{"name":"operator","type":"address","internalType":"address"},{"name":"tokenId","type":"uint256","internalType":"uint256"}]},{"type":"error","name":"ERC721InvalidApprover","inputs":[{"name":"approver","type":"address","internalType":"address"}]},{"type":"error","name":"ERC721InvalidOperator","inputs":[{"name":"operator","type":"address","internalType":"address"}]},{"type":"error","name":"ERC721InvalidOwner","inputs":[{"name":"owner","type":"address","internalType":"address"}]},{"type":"error","name":"ERC721InvalidReceiver","inputs":[{"name":"receiver","type":"address","internalType":"address"}]},{"type":"error","name":"ERC721InvalidSender","inputs":[{"name":"sender","type":"address","internalType":"address"}]},{"type":"error","name":"ERC721Metadata__URI_QueryFor_NonExistentToken","inputs":[]},{"type":"error","name":"ERC721NonexistentToken","inputs":[{"name":"tokenId","type":"uint256","internalType":"uint256"}]},{"type":"error","name":"MoodNft__CantFlipMoodIfNotOwner","inputs":[]},{"type":"error","name":"OwnableInvalidOwner","inputs":[{"name":"owner","type":"address","internalType":"address"}]},{"type":"error","name":"OwnableUnauthorizedAccount","inputs":[{"name":"account","type":"address","internalType":"address"}]}],"bytecode":{"object":"0x60806040523480156200001157600080fd5b506040516200195438038062001954833981016040819052620000349162000211565b3360405180604001604052806008815260200167135bdbd90813919560c21b8152506040518060400160405280600281526020016126a760f11b81525081600090816200008291906200030a565b5060016200009182826200030a565b5050506001600160a01b038116620000c357604051631e4fbdf760e01b81526000600482015260240160405180910390fd5b620000ce81620000fa565b5060006007556008620000e283826200030a565b506009620000f182826200030a565b505050620003d6565b600680546001600160a01b038381166001600160a01b0319831681179093556040519116919082907f8be0079c531659141344cd1fd0a4f28419497f9722a3daafe3b4186f6b6457e090600090a35050565b634e487b7160e01b600052604160045260246000fd5b600082601f8301126200017457600080fd5b81516001600160401b03808211156200019157620001916200014c565b604051601f8301601f19908116603f01168101908282118183101715620001bc57620001bc6200014c565b81604052838152602092508683858801011115620001d957600080fd5b600091505b83821015620001fd5785820183015181830184015290820190620001de565b600093810190920192909252949350505050565b600080604083850312156200022557600080fd5b82516001600160401b03808211156200023d57600080fd5b6200024b8683870162000162565b935060208501519150808211156200026257600080fd5b50620002718582860162000162565b9150509250929050565b600181811c908216806200029057607f821691505b602082108103620002b157634e487b7160e01b600052602260045260246000fd5b50919050565b601f8211156200030557600081815260208120601f850160051c81016020861015620002e05750805b601f850160051c820191505b818110156200030157828155600101620002ec565b5050505b505050565b81516001600160401b038111156200032657620003266200014c565b6200033e816200033784546200027b565b84620002b7565b602080601f8311600181146200037657600084156200035d5750858301515b600019600386901b1c1916600185901b17855562000301565b600085815260208120601f198616915b82811015620003a75788860151825594840194600190910190840162000386565b5085821015620003c65787850151600019600388901b60f8161c191681555b5050505050600190811b01905550565b61156e80620003e66000396000f3fe608060405234801561001057600080fd5b50600436106101375760003560e01c8063715018a6116100b8578063c1a147a01161007c578063c1a147a014610266578063c2229fea14610279578063c87b56dd14610281578063e985e9c514610294578063f2fde38b146102a7578063fc842121146102ba57600080fd5b8063715018a61461021f5780638da5cb5b1461022757806395d89b4114610238578063a22cb46514610240578063b88d4fde1461025357600080fd5b806342842e0e116100ff57806342842e0e146101cc5780635de0682f146101df5780636352211e146101e75780636e02007d146101fa57806370a082311461020c57600080fd5b806301ffc9a71461013c57806306fdde0314610164578063081812fc14610179578063095ea7b3146101a457806323b872dd146101b9575b600080fd5b61014f61014a36600461100b565b6102c2565b60405190151581526020015b60405180910390f35b61016c610314565b60405161015b919061107f565b61018c610187366004611092565b6103a6565b6040516001600160a01b03909116815260200161015b565b6101b76101b23660046110c7565b6103cf565b005b6101b76101c73660046110f1565b6103de565b6101b76101da3660046110f1565b61046e565b61016c61048e565b61018c6101f5366004611092565b61049d565b6007545b60405190815260200161015b565b6101fe61021a36600461112d565b6104a8565b6101b76104f0565b6006546001600160a01b031661018c565b61016c610504565b6101b761024e366004611148565b610513565b6101b761026136600461119a565b61051e565b6101b7610274366004611092565b610535565b6101b76105e2565b61016c61028f366004611092565b61062e565b61014f6102a2366004611276565b61083e565b6101b76102b536600461112d565b61086c565b61016c6108a7565b60006001600160e01b031982166380ac58cd60e01b14806102f357506001600160e01b03198216635b5e139f60e01b145b8061030e57506301ffc9a760e01b6001600160e01b03198316145b92915050565b606060008054610323906112a9565b80601f016020809104026020016040519081016040528092919081815260200182805461034f906112a9565b801561039c5780601f106103715761010080835404028352916020019161039c565b820191906000526020600020905b81548152906001019060200180831161037f57829003601f168201915b5050505050905090565b60006103b1826108b6565b506000828152600460205260409020546001600160a01b031661030e565b6103da8282336108ef565b5050565b6001600160a01b03821661040d57604051633250574960e11b8152600060048201526024015b60405180910390fd5b600061041a8383336108fc565b9050836001600160a01b0316816001600160a01b031614610468576040516364283d7b60e01b81526001600160a01b0380861660048301526024820184905282166044820152606401610404565b50505050565b6104898383836040518060200160405280600081525061051e565b505050565b606060088054610323906112a9565b600061030e826108b6565b60006001600160a01b0382166104d4576040516322718ad960e21b815260006004820152602401610404565b506001600160a01b031660009081526003602052604090205490565b6104f86109f5565b6105026000610a22565b565b606060018054610323906112a9565b6103da338383610a74565b6105298484846103de565b61046884848484610b13565b3361053f826103a6565b6001600160a01b03161415801561056757503361055b8261049d565b6001600160a01b031614155b15610585576040516385046ca760e01b815260040160405180910390fd5b6000818152600a602052604081205460ff1660018111156105a8576105a86112e3565b036105c8576000908152600a60205260409020805460ff19166001179055565b6000818152600a60205260409020805460ff191690555b50565b6007546105ef3382610c3c565b6007546105fd90600161130f565b60075560405181907f72102923c3d44433bd725cb2c744a4c92a536ad249b665dec9853a16ed66552590600090a250565b6060600061063b8361049d565b6001600160a01b031603610662576040516336faf6d760e11b815260040160405180910390fd5b600060098054610671906112a9565b80601f016020809104026020016040519081016040528092919081815260200182805461069d906112a9565b80156106ea5780601f106106bf576101008083540402835291602001916106ea565b820191906000526020600020905b8154815290600101906020018083116106cd57829003601f168201915b50939450600193506106fb92505050565b6000848152600a602052604090205460ff16600181111561071e5761071e6112e3565b036107b15760088054610730906112a9565b80601f016020809104026020016040519081016040528092919081815260200182805461075c906112a9565b80156107a95780601f1061077e576101008083540402835291602001916107a9565b820191906000526020600020905b81548152906001019060200180831161078c57829003601f168201915b505050505090505b60408051808201909152601d81527f646174613a6170706c69636174696f6e2f6a736f6e3b6261736536342c00000060208201526108166107f0610314565b83604051602001610802929190611322565b604051602081830303815290604052610c56565b604051602001610827929190611436565b604051602081830303815290604052915050919050565b6001600160a01b03918216600090815260056020908152604080832093909416825291909152205460ff1690565b6108746109f5565b6001600160a01b03811661089e57604051631e4fbdf760e01b815260006004820152602401610404565b6105df81610a22565b606060098054610323906112a9565b6000818152600260205260408120546001600160a01b03168061030e57604051637e27328960e01b815260048101849052602401610404565b6104898383836001610da9565b6000828152600260205260408120546001600160a01b039081169083161561092957610929818486610eaf565b6001600160a01b0381161561096757610946600085600080610da9565b6001600160a01b038116600090815260036020526040902080546000190190555b6001600160a01b03851615610996576001600160a01b0385166000908152600360205260409020805460010190555b60008481526002602052604080822080546001600160a01b0319166001600160a01b0389811691821790925591518793918516917fddf252ad1be2c89b69c2b068fc378daa952ba7f163c4a11628f55a4df523b3ef91a4949350505050565b6006546001600160a01b031633146105025760405163118cdaa760e01b8152336004820152602401610404565b600680546001600160a01b038381166001600160a01b0319831681179093556040519116919082907f8be0079c531659141344cd1fd0a4f28419497f9722a3daafe3b4186f6b6457e090600090a35050565b6001600160a01b038216610aa657604051630b61174360e31b81526001600160a01b0383166004820152602401610404565b6001600160a01b03838116600081815260056020908152604080832094871680845294825291829020805460ff191686151590811790915591519182527f17307eab39ab6107e8899845ad3d59bd9653f200f220920489ca2b5937696c31910160405180910390a3505050565b6001600160a01b0383163b1561046857604051630a85bd0160e11b81526001600160a01b0384169063150b7a0290610b55903390889087908790600401611465565b6020604051808303816000875af1925050508015610b90575060408051601f3d908101601f19168201909252610b8d918101906114a2565b60015b610bf9573d808015610bbe576040519150601f19603f3d011682016040523d82523d6000602084013e610bc3565b606091505b508051600003610bf157604051633250574960e11b81526001600160a01b0385166004820152602401610404565b805181602001fd5b6001600160e01b03198116630a85bd0160e11b14610c3557604051633250574960e11b81526001600160a01b0385166004820152602401610404565b5050505050565b6103da828260405180602001604052806000815250610f13565b60608151600003610c7557505060408051602081019091526000815290565b60006040518060600160405280604081526020016114f96040913990506000600384516002610ca4919061130f565b610cae91906114bf565b610cb99060046114e1565b67ffffffffffffffff811115610cd157610cd1611184565b6040519080825280601f01601f191660200182016040528015610cfb576020820181803683370190505b509050600182016020820185865187015b80821015610d67576003820191508151603f8160121c168501518453600184019350603f81600c1c168501518453600184019350603f8160061c168501518453600184019350603f8116850151845350600183019250610d0c565b5050600386510660018114610d835760028114610d9657610d9e565b603d6001830353603d6002830353610d9e565b603d60018303535b509195945050505050565b8080610dbd57506001600160a01b03821615155b15610e7f576000610dcd846108b6565b90506001600160a01b03831615801590610df95750826001600160a01b0316816001600160a01b031614155b8015610e0c5750610e0a818461083e565b155b15610e355760405163a9fbf51f60e01b81526001600160a01b0384166004820152602401610404565b8115610e7d5783856001600160a01b0316826001600160a01b03167f8c5be1e5ebec7d5bd14f71427d1e84f3dd0314c0f7b2291e5b200ac8c7c3b92560405160405180910390a45b505b5050600090815260046020526040902080546001600160a01b0319166001600160a01b0392909216919091179055565b610eba838383610f2a565b610489576001600160a01b038316610ee857604051637e27328960e01b815260048101829052602401610404565b60405163177e802f60e01b81526001600160a01b038316600482015260248101829052604401610404565b610f1d8383610f90565b6104896000848484610b13565b60006001600160a01b03831615801590610f885750826001600160a01b0316846001600160a01b03161480610f645750610f64848461083e565b80610f8857506000828152600460205260409020546001600160a01b038481169116145b949350505050565b6001600160a01b038216610fba57604051633250574960e11b815260006004820152602401610404565b6000610fc8838360006108fc565b90506001600160a01b03811615610489576040516339e3563760e11b815260006004820152602401610404565b6001600160e01b0319811681146105df57600080fd5b60006020828403121561101d57600080fd5b813561102881610ff5565b9392505050565b60005b8381101561104a578181015183820152602001611032565b50506000910152565b6000815180845261106b81602086016020860161102f565b601f01601f19169290920160200192915050565b6020815260006110286020830184611053565b6000602082840312156110a457600080fd5b5035919050565b80356001600160a01b03811681146110c257600080fd5b919050565b600080604083850312156110da57600080fd5b6110e3836110ab565b946020939093013593505050565b60008060006060848603121561110657600080fd5b61110f846110ab565b925061111d602085016110ab565b9150604084013590509250925092565b60006020828403121561113f57600080fd5b611028826110ab565b6000806040838503121561115b57600080fd5b611164836110ab565b91506020830135801515811461117957600080fd5b809150509250929050565b634e487b7160e01b600052604160045260246000fd5b600080600080608085870312156111b057600080fd5b6111b9856110ab565b93506111c7602086016110ab565b925060408501359150606085013567ffffffffffffffff808211156111eb57600080fd5b818701915087601f8301126111ff57600080fd5b81358181111561121157611211611184565b604051601f8201601f19908116603f0116810190838211818310171561123957611239611184565b816040528281528a602084870101111561125257600080fd5b82602086016020830137600060208483010152809550505050505092959194509250565b6000806040838503121561128957600080fd5b611292836110ab565b91506112a0602084016110ab565b90509250929050565b600181811c908216806112bd57607f821691505b6020821081036112dd57634e487b7160e01b600052602260045260246000fd5b50919050565b634e487b7160e01b600052602160045260246000fd5b634e487b7160e01b600052601160045260246000fd5b8082018082111561030e5761030e6112f9565b683d913730b6b2911d1160b91b8152825160009061134781600985016020880161102f565b7f222c20226465736372697074696f6e223a22416e204e465420746861742072656009918401918201527f666c6563747320746865206d6f6f64206f6620746865206f776e65722c20313060298201526e018129037b71021b430b4b71091161608d1b60498201527f2261747472696275746573223a205b7b2274726169745f74797065223a20226d60588201527f6f6f64696e657373222c202276616c7565223a203130307d5d2c2022696d616760788201526332911d1160e11b6098820152835161141b81609c84016020880161102f565b61227d60f01b609c9290910191820152609e01949350505050565b6000835161144881846020880161102f565b83519083019061145c81836020880161102f565b01949350505050565b6001600160a01b038581168252841660208201526040810183905260806060820181905260009061149890830184611053565b9695505050505050565b6000602082840312156114b457600080fd5b815161102881610ff5565b6000826114dc57634e487b7160e01b600052601260045260246000fd5b500490565b808202811582820484141761030e5761030e6112f956fe4142434445464748494a4b4c4d4e4f505152535455565758595a6162636465666768696a6b6c6d6e6f707172737475767778797a303132333435363738392b2fa264697066735822122014c76c7f964ad7009040e72a3c6b1feea6dcd7e9602ba6cb7012b3c2dc61a09564736f6c63430008140033","linkReferences":{}},"methodIdentifiers":{"approve(address,uint256)":"095ea7b3","balanceOf(address)":"70a08231","flipMood(uint256)":"c1a147a0","getApproved(uint256)":"081812fc","getHappySVG()":"fc842121","getSadSVG()":"5de0682f","getTokenCounter()":"6e02007d","isApprovedForAll(address,address)":"e985e9c5","mintNft()":"c2229fea","name()":"06fdde03","owner()":"8da5cb5b","ownerOf(uint256)":"6352211e","renounceOwnership()":"715018a6","safeTransferFrom(address,address,uint256)":"42842e0e","safeTransferFrom(address,address,uint256,bytes)":"b88d4fde","setApprovalForAll(address,bool)":"a22cb465","supportsInterface(bytes4)":"01ffc9a7","symbol()":"95d89b41","tokenURI(uint256)":"c87b56dd","transferFrom(address,address,uint256)":"23b872dd","transferOwnership(address)":"f2fde38b"},"id":40}