{"abi":[{"type":"constructor","inputs":[{"name":"priceFeed","type":"address","internalType":"address"}],"stateMutability":"nonpayable"},{"type":"fallback","stateMutability":"payable"},{"type":"receive","stateMutability":"payable"},{"type":"function","name":"MINIMUM_USD","inputs":[],"outputs":[{"name":"","type":"uint256","internalType":"uint256"}],"stateMutability":"view"},{"type":"function","name":"fund","inputs":[],"outputs":[],"stateMutability":"payable"},{"type":"function","name":"getAddressToAmountFunded","inputs":[{"name":"funder","type":"address","internalType":"address"}],"outputs":[{"name":"","type":"uint256","internalType":"uint256"}],"stateMutability":"view"},{"type":"function","name":"getFunder","inputs":[{"name":"index","type":"uint256","internalType":"uint256"}],"outputs":[{"name":"","type":"address","internalType":"address"}],"stateMutability":"view"},{"type":"function","name":"getOwner","inputs":[],"outputs":[{"name":"","type":"address","internalType":"address"}],"stateMutability":"view"},{"type":"function","name":"getVersion","inputs":[],"outputs":[{"name":"","type":"uint256","internalType":"uint256"}],"stateMutability":"view"},{"type":"function","name":"withdraw","inputs":[],"outputs":[],"stateMutability":"nonpayable"},{"type":"error","name":"FundMe__NotOwner","inputs":[]}],"bytecode":{"object":"0x608060405234801561001057600080fd5b506040516107ac3803806107ac83398101604081905261002f91610062565b60028054336001600160a01b031991821617909155600380549091166001600160a01b0392909216919091179055610092565b60006020828403121561007457600080fd5b81516001600160a01b038116811461008b57600080fd5b9392505050565b61070b806100a16000396000f3fe6080604052600436106100745760003560e01c80636b69a5921161004e5780636b69a592146100fe578063893d20e81461011a578063b60d428814610083578063d7b4750c1461014c57610083565b80630343fb251461008b5780630d8e6e2c146100d45780633ccfd60b146100e957610083565b366100835761008161016c565b005b61008161016c565b34801561009757600080fd5b506100c16100a636600461054a565b6001600160a01b031660009081526020819052604090205490565b6040519081526020015b60405180910390f35b3480156100e057600080fd5b506100c1610247565b3480156100f557600080fd5b506100816102ba565b34801561010a57600080fd5b506100c1674563918244f4000081565b34801561012657600080fd5b506002546001600160a01b03165b6040516001600160a01b0390911681526020016100cb565b34801561015857600080fd5b50610134610167366004610573565b6103e5565b600354674563918244f400009061018d9034906001600160a01b0316610415565b10156101e05760405162461bcd60e51b815260206004820152601b60248201527f596f75206e65656420746f207370656e64206d6f72652045544821000000000060448201526064015b60405180910390fd5b33600090815260208190526040812080543492906101ff9084906105a2565b90915550506001805480820182556000919091527fb10e2d527612073b26eecdfd717e6a320cf44b4afac2b0732d9fcbe2b7fa0cf60180546001600160a01b03191633179055565b6003546040805163054fd4d560e41b815290516000926001600160a01b0316916354fd4d509160048083019260209291908290030181865afa158015610291573d6000803e3d6000fd5b505050506040513d601f19601f820116820180604052508101906102b591906105b5565b905090565b6002546001600160a01b031633146102e55760405163579610db60e01b815260040160405180910390fd5b60015460005b8181101561033c57600060018281548110610308576103086105ce565b60009182526020808320909101546001600160a01b0316825281905260408120555080610334816105e4565b9150506102eb565b50604080516000815260208101918290525161035a916001916104d0565b50604051600090339047908381818185875af1925050503d806000811461039d576040519150601f19603f3d011682016040523d82523d6000602084013e6103a2565b606091505b50509050806103e15760405162461bcd60e51b815260206004820152600b60248201526a10d85b1b0819985a5b195960aa1b60448201526064016101d7565b5050565b6000600182815481106103fa576103fa6105ce565b6000918252602090912001546001600160a01b031692915050565b6000806104218361044d565b90506000670de0b6b3a764000061043886846105fd565b6104429190610614565b925050505b92915050565b600080826001600160a01b031663feaf968c6040518163ffffffff1660e01b815260040160a060405180830381865afa15801561048e573d6000803e3d6000fd5b505050506040513d601f19601f820116820180604052508101906104b29190610655565b505050915050806402540be4006104c991906106a5565b9392505050565b828054828255906000526020600020908101928215610525579160200282015b8281111561052557825182546001600160a01b0319166001600160a01b039091161782556020909201916001909101906104f0565b50610531929150610535565b5090565b5b808211156105315760008155600101610536565b60006020828403121561055c57600080fd5b81356001600160a01b03811681146104c957600080fd5b60006020828403121561058557600080fd5b5035919050565b634e487b7160e01b600052601160045260246000fd5b808201808211156104475761044761058c565b6000602082840312156105c757600080fd5b5051919050565b634e487b7160e01b600052603260045260246000fd5b6000600182016105f6576105f661058c565b5060010190565b80820281158282048414176104475761044761058c565b60008261063157634e487b7160e01b600052601260045260246000fd5b500490565b805169ffffffffffffffffffff8116811461065057600080fd5b919050565b600080600080600060a0868803121561066d57600080fd5b61067686610636565b945060208601519350604086015192506060860151915061069960808701610636565b90509295509295909350565b80820260008212600160ff1b841416156106c1576106c161058c565b81810583148215176104475761044761058c56fea2646970667358221220e887cef0ed85c6476300839fea13dd80e2b04f4924f4d33c3c531472904c780d64736f6c63430008130033","linkReferences":{}},"methodIdentifiers":{"MINIMUM_USD()":"6b69a592","fund()":"b60d4288","getAddressToAmountFunded(address)":"0343fb25","getFunder(uint256)":"d7b4750c","getOwner()":"893d20e8","getVersion()":"0d8e6e2c","withdraw()":"3ccfd60b"},"id":27}