{"abi":[{"type":"function","name":"RELATIVE_BROADCAST_PATH","inputs":[],"outputs":[{"name":"","type":"string","internalType":"string"}],"stateMutability":"view"},{"type":"function","name":"get_most_recent_deployment","inputs":[{"name":"contractName","type":"string","internalType":"string"},{"name":"chainId","type":"uint256","internalType":"uint256"},{"name":"relativeBroadcastPath","type":"string","internalType":"string"}],"outputs":[{"name":"","type":"address","internalType":"address"}],"stateMutability":"view"},{"type":"function","name":"get_most_recent_deployment","inputs":[{"name":"contractName","type":"string","internalType":"string"},{"name":"chainId","type":"uint256","internalType":"uint256"}],"outputs":[{"name":"","type":"address","internalType":"address"}],"stateMutability":"view"},{"type":"function","name":"vm","inputs":[],"outputs":[{"name":"","type":"Vm","internalType":"contract Vm"}],"stateMutability":"view"}],"bytecode":{"object":"0x61112261003a600b82828239805160001a60731461002d57634e487b7160e01b600052600060045260246000fd5b30600052607381538281f3fe73000000000000000000000000000000000000000030146080604052600436106100565760003560e01c80632aa1c6961461005b5780633a7684631461009b5780633d363fe3146100ce578063e374cdf1146100e1575b600080fd5b6100856040518060400160405280600b81526020016a0b8bd89c9bd85918d85cdd60aa1b81525081565b6040516100929190610ab7565b60405180910390f35b6100b6737109709ecfa91a80626ff3989d68f67f5b1dd12d81565b6040516001600160a01b039091168152602001610092565b6100b66100dc366004610bb8565b6100f4565b6100b66100ef366004610c25565b6104eb565b604051630525e1db60e21b81526000908190819081908190737109709ecfa91a80626ff3989d68f67f5b1dd12d90631497876c90610139908990600390600401610c6a565b600060405180830381865afa158015610156573d6000803e3d6000fd5b505050506040513d6000823e601f3d908101601f1916820160405261017e9190810190610cf8565b905060005b81518110156104185760008282815181106101a0576101a0610e55565b602090810291909101015160405163348051d760e11b8152600481018b905290915061025590737109709ecfa91a80626ff3989d68f67f5b1dd12d90636900a3ae90602401600060405180830381865afa158015610202573d6000803e3d6000fd5b505050506040513d6000823e601f3d908101601f1916820160405261022a9190810190610e6b565b60405160200161023a9190610ea0565b60408051601f19818403018152919052602083015190610524565b8015610290575061029060405180604001604052806005815260200164173539b7b760d91b815250826020015161052490919063ffffffff16565b80156102cf57506102cd6040518060400160405280600781526020016632393c96b93ab760c91b815250826020015161052490919063ffffffff16565b155b156104055760208101516040516360f9bb1160e01b815260019550600091737109709ecfa91a80626ff3989d68f67f5b1dd12d916360f9bb119161031591600401610ab7565b600060405180830381865afa158015610332573d6000803e3d6000fd5b505050506040513d6000823e601f3d908101601f1916820160405261035a9190810190610e6b565b6040516356eef15b60e11b8152909150600090737109709ecfa91a80626ff3989d68f67f5b1dd12d9063addde2b690610397908590600401610ece565b602060405180830381865afa1580156103b4573d6000803e3d6000fd5b505050506040513d601f19601f820116820180604052508101906103d89190610f0d565b905086811115610402576103ed828d8a61060d565b97506001600160a01b03881615610402578096505b50505b508061041081610f3c565b915050610183565b508161048a5760405162461bcd60e51b815260206004820152603660248201527f4e6f206465706c6f796d656e7420617274696661637473207765726520666f756044820152753732103337b91039b832b1b4b334b2b21031b430b4b760511b60648201526084015b60405180910390fd5b6001600160a01b038416156104a557839450505050506104e4565b60405162461bcd60e51b8152602060048201526014602482015273139bc818dbdb9d1c9858dd0819195c1b1bde595960621b6044820152606401610481565b9392505050565b600061051b83836040518060400160405280600b81526020016a0b8bd89c9bd85918d85cdd60aa1b8152506100f4565b90505b92915050565b8051825160009184918491118061053a57508151155b1561054a5760009250505061051e565b60005b8151835161055b9190610f55565b811161060157600160005b83518110156105da5783818151811061058157610581610e55565b01602001516001600160f81b0319168561059b8386610f68565b815181106105ab576105ab610e55565b01602001516001600160f81b031916146105c857600091506105da565b806105d281610f3c565b915050610566565b5080156105ee57600194505050505061051e565b50806105f981610f3c565b91505061054d565b50600095945050505050565b6000805b60405163348051d760e11b815260048101829052737109709ecfa91a80626ff3989d68f67f5b1dd12d9063528a683c9087908390636900a3ae90602401600060405180830381865afa15801561066b573d6000803e3d6000fd5b505050506040513d6000823e601f3d908101601f191682016040526106939190810190610e6b565b6040516020016106a39190610f7b565b6040516020818303038152906040526040518363ffffffff1660e01b81526004016106cf929190610fbd565b602060405180830381865afa1580156106ec573d6000803e3d6000fd5b505050506040513d601f19601f820116820180604052508101906107109190610feb565b156109075760405163348051d760e11b815260048101829052600090737109709ecfa91a80626ff3989d68f67f5b1dd12d90636900a3ae90602401600060405180830381865afa158015610768573d6000803e3d6000fd5b505050506040513d6000823e601f3d908101601f191682016040526107909190810190610e6b565b6040516020016107a09190611006565b60408051601f19818403018152908290526314a29a0f60e21b82529150737109709ecfa91a80626ff3989d68f67f5b1dd12d9063528a683c906107e99089908590600401610fbd565b602060405180830381865afa158015610806573d6000803e3d6000fd5b505050506040513d601f19601f8201168201806040525081019061082a9190610feb565b156108f457600061083b8783610910565b90506108478187610991565b156108f25760405163348051d760e11b8152600481018490526108ef90737109709ecfa91a80626ff3989d68f67f5b1dd12d90636900a3ae90602401600060405180830381865afa1580156108a0573d6000803e3d6000fd5b505050506040513d6000823e601f3d908101601f191682016040526108c89190810190610e6b565b6040516020016108d89190611055565b60408051601f1981840301815291905288906109ea565b94505b505b50806108ff81610f3c565b915050610611565b50909392505050565b6040516309389f5960e31b8152606090737109709ecfa91a80626ff3989d68f67f5b1dd12d906349c4fac89061094c9086908690600401610fbd565b600060405180830381865afa158015610969573d6000803e3d6000fd5b505050506040513d6000823e601f3d908101601f1916820160405261051b9190810190610e6b565b6000816040516020016109a491906110a7565b60405160208183030381529060405280519060200120836040516020016109cb91906110a7565b6040516020818303038152906040528051906020012014905092915050565b604051631e19e65760e01b8152600090737109709ecfa91a80626ff3989d68f67f5b1dd12d90631e19e65790610a269086908690600401610fbd565b602060405180830381865afa158015610a43573d6000803e3d6000fd5b505050506040513d601f19601f8201168201806040525081019061051b91906110c3565b60005b83811015610a82578181015183820152602001610a6a565b50506000910152565b60008151808452610aa3816020860160208601610a67565b601f01601f19169290920160200192915050565b60208152600061051b6020830184610a8b565b634e487b7160e01b600052604160045260246000fd5b60405160a0810167ffffffffffffffff81118282101715610b0357610b03610aca565b60405290565b604051601f8201601f1916810167ffffffffffffffff81118282101715610b3257610b32610aca565b604052919050565b600067ffffffffffffffff821115610b5457610b54610aca565b50601f01601f191660200190565b600082601f830112610b7357600080fd5b8135610b86610b8182610b3a565b610b09565b818152846020838601011115610b9b57600080fd5b816020850160208301376000918101602001919091529392505050565b600080600060608486031215610bcd57600080fd5b833567ffffffffffffffff80821115610be557600080fd5b610bf187838801610b62565b9450602086013593506040860135915080821115610c0e57600080fd5b50610c1b86828701610b62565b9150509250925092565b60008060408385031215610c3857600080fd5b823567ffffffffffffffff811115610c4f57600080fd5b610c5b85828601610b62565b95602094909401359450505050565b604081526000610c7d6040830185610a8b565b905067ffffffffffffffff831660208301529392505050565b600082601f830112610ca757600080fd5b8151610cb5610b8182610b3a565b818152846020838601011115610cca57600080fd5b610cdb826020830160208701610a67565b949350505050565b80518015158114610cf357600080fd5b919050565b60006020808385031215610d0b57600080fd5b825167ffffffffffffffff80821115610d2357600080fd5b818501915085601f830112610d3757600080fd5b815181811115610d4957610d49610aca565b8060051b610d58858201610b09565b9182528381018501918581019089841115610d7257600080fd5b86860192505b83831015610e4857825185811115610d905760008081fd5b860160a0818c03601f1901811315610da85760008081fd5b610db0610ae0565b8983015188811115610dc25760008081fd5b610dd08e8c83870101610c96565b82525060408084015189811115610de75760008081fd5b610df58f8d83880101610c96565b8c840152506060808501518a81168114610e0f5760008081fd5b80838501525060809150610e24828601610ce3565b90830152610e33848401610ce3565b90820152845250509186019190860190610d78565b9998505050505050505050565b634e487b7160e01b600052603260045260246000fd5b600060208284031215610e7d57600080fd5b815167ffffffffffffffff811115610e9457600080fd5b610cdb84828501610c96565b6000602f60f81b8083528351610ebd816001860160208801610a67565b600193019283015250600201919050565b604081526000610ee16040830184610a8b565b8281036020840152600a81526902e74696d657374616d760b41b60208201526040810191505092915050565b600060208284031215610f1f57600080fd5b5051919050565b634e487b7160e01b600052601160045260246000fd5b600060018201610f4e57610f4e610f26565b5060010190565b8181038181111561051e5761051e610f26565b8082018082111561051e5761051e610f26565b6e242e7472616e73616374696f6e735b60881b815260008251610fa581600f850160208701610a67565b605d60f81b600f939091019283015250601001919050565b604081526000610fd06040830185610a8b565b8281036020840152610fe28185610a8b565b95945050505050565b600060208284031215610ffd57600080fd5b61051b82610ce3565b6e242e7472616e73616374696f6e735b60881b81526000825161103081600f850160208701610a67565b6d5d2e636f6e74726163744e616d6560901b600f939091019283015250601d01919050565b6e242e7472616e73616374696f6e735b60881b81526000825161107f81600f850160208701610a67565b705d2e636f6e74726163744164647265737360781b600f939091019283015250602001919050565b600082516110b9818460208701610a67565b9190910192915050565b6000602082840312156110d557600080fd5b81516001600160a01b03811681146104e457600080fdfea2646970667358221220a5897df71010fe2418bfac722e8a41705a6c3b98c13d3ede8e358eca73db770b64736f6c63430008140033","linkReferences":{}},"methodIdentifiers":{"RELATIVE_BROADCAST_PATH()":"2aa1c696","get_most_recent_deployment(string,uint256)":"e374cdf1","get_most_recent_deployment(string,uint256,string)":"3d363fe3","vm()":"3a768463"},"id":21}