{"abi":[{"type":"function","name":"balanceOf","inputs":[{"name":"_owner","type":"address","internalType":"address"}],"outputs":[{"name":"","type":"uint256","internalType":"uint256"}],"stateMutability":"view"},{"type":"function","name":"decimals","inputs":[],"outputs":[{"name":"","type":"uint8","internalType":"uint8"}],"stateMutability":"pure"},{"type":"function","name":"name","inputs":[],"outputs":[{"name":"","type":"string","internalType":"string"}],"stateMutability":"pure"},{"type":"function","name":"totalSupply","inputs":[],"outputs":[{"name":"","type":"uint256","internalType":"uint256"}],"stateMutability":"pure"},{"type":"function","name":"transfer","inputs":[{"name":"_to","type":"address","internalType":"address"},{"name":"_amount","type":"uint256","internalType":"uint256"}],"outputs":[],"stateMutability":"nonpayable"}],"bytecode":{"object":"0x6080604052348015600f57600080fd5b506102e38061001f6000396000f3fe608060405234801561001057600080fd5b50600436106100575760003560e01c806306fdde031461005c57806318160ddd14610093578063313ce567146100ac57806370a08231146100bb578063a9059cbb146100e4575b600080fd5b604080518082018252600c81526b26b0b73ab0b6102a37b5b2b760a11b6020820152905161008a91906101b4565b60405180910390f35b68056bc75e2d631000005b60405190815260200161008a565b6040516012815260200161008a565b61009e6100c936600461021f565b6001600160a01b031660009081526020819052604090205490565b6100f76100f2366004610241565b6100f9565b005b6001600160a01b03821660009081526020819052604080822054338352908220546101249190610281565b3360009081526020819052604081208054929350849290919061014890849061029a565b90915550506001600160a01b03831660009081526020819052604081208054849290610175908490610281565b90915550506001600160a01b0383166000908152602081905260408082205433835291205482916101a591610281565b146101af57600080fd5b505050565b60006020808352835180602085015260005b818110156101e2578581018301518582016040015282016101c6565b506000604082860101526040601f19601f8301168501019250505092915050565b80356001600160a01b038116811461021a57600080fd5b919050565b60006020828403121561023157600080fd5b61023a82610203565b9392505050565b6000806040838503121561025457600080fd5b61025d83610203565b946020939093013593505050565b634e487b7160e01b600052601160045260246000fd5b808201808211156102945761029461026b565b92915050565b818103818111156102945761029461026b56fea2646970667358221220b0dd99a0bf926023921e51f538fb4d9ce0c0d0e9edc26051638d436262f9ef1364736f6c63430008190033","linkReferences":{}},"methodIdentifiers":{"balanceOf(address)":"70a08231","decimals()":"313ce567","name()":"06fdde03","totalSupply()":"18160ddd","transfer(address,uint256)":"a9059cbb"},"id":5}